{
  "contractName": "FeedbackForm",
  "abi": [
    {
      "inputs": [
        {
          "internalType": "string",
          "name": "_title",
          "type": "string"
        },
        {
          "internalType": "string",
          "name": "_description",
          "type": "string"
        }
      ],
      "stateMutability": "nonpayable",
      "type": "constructor"
    },
    {
      "inputs": [],
      "name": "description",
      "outputs": [
        {
          "internalType": "string",
          "name": "",
          "type": "string"
        }
      ],
      "stateMutability": "view",
      "type": "function"
    },
    {
      "inputs": [
        {
          "internalType": "address",
          "name": "",
          "type": "address"
        }
      ],
      "name": "feedbackProviders",
      "outputs": [
        {
          "internalType": "bool",
          "name": "",
          "type": "bool"
        }
      ],
      "stateMutability": "view",
      "type": "function"
    },
    {
      "inputs": [],
      "name": "owner",
      "outputs": [
        {
          "internalType": "address",
          "name": "",
          "type": "address"
        }
      ],
      "stateMutability": "view",
      "type": "function"
    },
    {
      "inputs": [
        {
          "internalType": "uint256",
          "name": "",
          "type": "uint256"
        }
      ],
      "name": "questions",
      "outputs": [
        {
          "internalType": "string",
          "name": "value",
          "type": "string"
        }
      ],
      "stateMutability": "view",
      "type": "function"
    },
    {
      "inputs": [],
      "name": "title",
      "outputs": [
        {
          "internalType": "string",
          "name": "",
          "type": "string"
        }
      ],
      "stateMutability": "view",
      "type": "function"
    },
    {
      "inputs": [
        {
          "internalType": "address",
          "name": "_address",
          "type": "address"
        }
      ],
      "name": "getHasProvidedFeedback",
      "outputs": [
        {
          "internalType": "bool",
          "name": "",
          "type": "bool"
        }
      ],
      "stateMutability": "view",
      "type": "function"
    },
    {
      "inputs": [
        {
          "internalType": "string[]",
          "name": "_questions",
          "type": "string[]"
        }
      ],
      "name": "setQuestions",
      "outputs": [],
      "stateMutability": "nonpayable",
      "type": "function"
    },
    {
      "inputs": [
        {
          "internalType": "uint256",
          "name": "_id",
          "type": "uint256"
        }
      ],
      "name": "getQuestionById",
      "outputs": [
        {
          "internalType": "string",
          "name": "",
          "type": "string"
        },
        {
          "internalType": "uint256[]",
          "name": "",
          "type": "uint256[]"
        }
      ],
      "stateMutability": "view",
      "type": "function"
    },
    {
      "inputs": [],
      "name": "getAllQuestions",
      "outputs": [
        {
          "components": [
            {
              "internalType": "string",
              "name": "value",
              "type": "string"
            },
            {
              "internalType": "uint256[]",
              "name": "feedback",
              "type": "uint256[]"
            }
          ],
          "internalType": "struct FeedbackForm.Question[]",
          "name": "",
          "type": "tuple[]"
        }
      ],
      "stateMutability": "view",
      "type": "function"
    },
    {
      "inputs": [
        {
          "internalType": "uint256[]",
          "name": "_feedback",
          "type": "uint256[]"
        }
      ],
      "name": "submitFeedback",
      "outputs": [],
      "stateMutability": "nonpayable",
      "type": "function"
    }
  ],
  "bytecode": "0x60806040523480156200001157600080fd5b5060405162001afb38038062001afb8339818101604052810190620000379190620002ff565b32600160006101000a81548173ffffffffffffffffffffffffffffffffffffffff021916908373ffffffffffffffffffffffffffffffffffffffff160217905550816002908051906020019062000090929190620000b2565b508060039080519060200190620000a9929190620000b2565b505050620003e8565b828054620000c090620003b3565b90600052602060002090601f016020900481019282620000e4576000855562000130565b82601f10620000ff57805160ff191683800117855562000130565b8280016001018555821562000130579182015b828111156200012f57825182559160200191906001019062000112565b5b5090506200013f919062000143565b5090565b5b808211156200015e57600081600090555060010162000144565b5090565b6000604051905090565b600080fd5b600080fd5b600080fd5b600080fd5b6000601f19601f8301169050919050565b7f4e487b7100000000000000000000000000000000000000000000000000000000600052604160045260246000fd5b620001cb8262000180565b810181811067ffffffffffffffff82111715620001ed57620001ec62000191565b5b80604052505050565b60006200020262000162565b9050620002108282620001c0565b919050565b600067ffffffffffffffff82111562000233576200023262000191565b5b6200023e8262000180565b9050602081019050919050565b60005b838110156200026b5780820151818401526020810190506200024e565b838111156200027b576000848401525b50505050565b600062000298620002928462000215565b620001f6565b905082815260208101848484011115620002b757620002b66200017b565b5b620002c48482856200024b565b509392505050565b600082601f830112620002e457620002e362000176565b5b8151620002f684826020860162000281565b91505092915050565b600080604083850312156200031957620003186200016c565b5b600083015167ffffffffffffffff8111156200033a576200033962000171565b5b6200034885828601620002cc565b925050602083015167ffffffffffffffff8111156200036c576200036b62000171565b5b6200037a85828601620002cc565b9150509250929050565b7f4e487b7100000000000000000000000000000000000000000000000000000000600052602260045260246000fd5b60006002820490506001821680620003cc57607f821691505b602082108103620003e257620003e162000384565b5b50919050565b61170380620003f86000396000f3fe608060405234801561001057600080fd5b506004361061009e5760003560e01c80638da5cb5b116100665780638da5cb5b1461015d57806390038dce1461017b578063b1329719146101ab578063c627278f146101c7578063e25f3e02146101e35761009e565b80632af9338e146100a357806331b1b978146100c15780634a79d50c146100f15780635a6a7d571461010f5780637284e4161461013f575b600080fd5b6100ab610214565b6040516100b89190610e15565b60405180910390f35b6100db60048036038101906100d69190610e77565b6103bd565b6040516100e89190610eee565b60405180910390f35b6100f9610463565b6040516101069190610eee565b60405180910390f35b61012960048036038101906101249190610f6e565b6104f1565b6040516101369190610fb6565b60405180910390f35b610147610547565b6040516101549190610eee565b60405180910390f35b6101656105d5565b6040516101729190610fe0565b60405180910390f35b61019560048036038101906101909190610f6e565b6105fb565b6040516101a29190610fb6565b60405180910390f35b6101c560048036038101906101c09190611143565b61061b565b005b6101e160048036038101906101dc9190611322565b6107c5565b005b6101fd60048036038101906101f89190610e77565b6108fe565b60405161020b9291906113da565b60405180910390f35b60606000805467ffffffffffffffff81111561023357610232611000565b5b60405190808252806020026020018201604052801561026c57816020015b610259610aa4565b8152602001906001900390816102515790505b50905060005b6000548110156103b557600460008281526020019081526020016000206040518060400160405290816000820180546102aa90611440565b80601f01602080910402602001604051908101604052809291908181526020018280546102d690611440565b80156103235780601f106102f857610100808354040283529160200191610323565b820191906000526020600020905b81548152906001019060200180831161030657829003601f168201915b505050505081526020016001820180548060200260200160405190810160405280929190818152602001828054801561037b57602002820191906000526020600020905b815481526020019060010190808311610367575b50505050508152505082828151811061039757610396611471565b5b602002602001018190525080806103ad906114cf565b915050610272565b508091505090565b60046020528060005260406000206000915090508060000180546103e090611440565b80601f016020809104026020016040519081016040528092919081815260200182805461040c90611440565b80156104595780601f1061042e57610100808354040283529160200191610459565b820191906000526020600020905b81548152906001019060200180831161043c57829003601f168201915b5050505050905081565b6002805461047090611440565b80601f016020809104026020016040519081016040528092919081815260200182805461049c90611440565b80156104e95780601f106104be576101008083540402835291602001916104e9565b820191906000526020600020905b8154815290600101906020018083116104cc57829003601f168201915b505050505081565b6000600560008373ffffffffffffffffffffffffffffffffffffffff1673ffffffffffffffffffffffffffffffffffffffff16815260200190815260200160002060009054906101000a900460ff169050919050565b6003805461055490611440565b80601f016020809104026020016040519081016040528092919081815260200182805461058090611440565b80156105cd5780601f106105a2576101008083540402835291602001916105cd565b820191906000526020600020905b8154815290600101906020018083116105b057829003601f168201915b505050505081565b600160009054906101000a900473ffffffffffffffffffffffffffffffffffffffff1681565b60056020528060005260406000206000915054906101000a900460ff1681565b600560003273ffffffffffffffffffffffffffffffffffffffff1673ffffffffffffffffffffffffffffffffffffffff16815260200190815260200160002060009054906101000a900460ff16156106a8576040517f08c379a000000000000000000000000000000000000000000000000000000000815260040161069f90611589565b60405180910390fd5b8051600054146106ed576040517f08c379a00000000000000000000000000000000000000000000000000000000081526004016106e49061161b565b60405180910390fd5b60005b81518110156107695760006004600083815260200190815260200160002090508060010183838151811061072757610726611471565b5b60200260200101519080600181540180825580915050600190039060005260206000200160009091909190915055508080610761906114cf565b9150506106f0565b506001600560003373ffffffffffffffffffffffffffffffffffffffff1673ffffffffffffffffffffffffffffffffffffffff16815260200190815260200160002060006101000a81548160ff02191690831515021790555050565b600160009054906101000a900473ffffffffffffffffffffffffffffffffffffffff1673ffffffffffffffffffffffffffffffffffffffff163273ffffffffffffffffffffffffffffffffffffffff1614610855576040517f08c379a000000000000000000000000000000000000000000000000000000000815260040161084c906116ad565b60405180910390fd5b805160008190555060005b6000548110156108fa57610872610aa4565b82828151811061088557610884611471565b5b60200260200101518160000181905250806004600084815260200190815260200160002060008201518160000190805190602001906108c5929190610abe565b5060208201518160010190805190602001906108e2929190610b44565b509050505080806108f2906114cf565b915050610860565b5050565b606080600160009054906101000a900473ffffffffffffffffffffffffffffffffffffffff1673ffffffffffffffffffffffffffffffffffffffff163273ffffffffffffffffffffffffffffffffffffffff1614610991576040517f08c379a0000000000000000000000000000000000000000000000000000000008152600401610988906116ad565b60405180910390fd5b60046000848152602001908152602001600020600001600460008581526020019081526020016000206001018180546109c990611440565b80601f01602080910402602001604051908101604052809291908181526020018280546109f590611440565b8015610a425780601f10610a1757610100808354040283529160200191610a42565b820191906000526020600020905b815481529060010190602001808311610a2557829003601f168201915b5050505050915080805480602002602001604051908101604052809291908181526020018280548015610a9457602002820191906000526020600020905b815481526020019060010190808311610a80575b5050505050905091509150915091565b604051806040016040528060608152602001606081525090565b828054610aca90611440565b90600052602060002090601f016020900481019282610aec5760008555610b33565b82601f10610b0557805160ff1916838001178555610b33565b82800160010185558215610b33579182015b82811115610b32578251825591602001919060010190610b17565b5b509050610b409190610b91565b5090565b828054828255906000526020600020908101928215610b80579160200282015b82811115610b7f578251825591602001919060010190610b64565b5b509050610b8d9190610b91565b5090565b5b80821115610baa576000816000905550600101610b92565b5090565b600081519050919050565b600082825260208201905092915050565b6000819050602082019050919050565b600081519050919050565b600082825260208201905092915050565b60005b83811015610c14578082015181840152602081019050610bf9565b83811115610c23576000848401525b50505050565b6000601f19601f8301169050919050565b6000610c4582610bda565b610c4f8185610be5565b9350610c5f818560208601610bf6565b610c6881610c29565b840191505092915050565b600081519050919050565b600082825260208201905092915050565b6000819050602082019050919050565b6000819050919050565b610cb281610c9f565b82525050565b6000610cc48383610ca9565b60208301905092915050565b6000602082019050919050565b6000610ce882610c73565b610cf28185610c7e565b9350610cfd83610c8f565b8060005b83811015610d2e578151610d158882610cb8565b9750610d2083610cd0565b925050600181019050610d01565b5085935050505092915050565b60006040830160008301518482036000860152610d588282610c3a565b91505060208301518482036020860152610d728282610cdd565b9150508091505092915050565b6000610d8b8383610d3b565b905092915050565b6000602082019050919050565b6000610dab82610bae565b610db58185610bb9565b935083602082028501610dc785610bca565b8060005b85811015610e035784840389528151610de48582610d7f565b9450610def83610d93565b925060208a01995050600181019050610dcb565b50829750879550505050505092915050565b60006020820190508181036000830152610e2f8184610da0565b905092915050565b6000604051905090565b600080fd5b600080fd5b610e5481610c9f565b8114610e5f57600080fd5b50565b600081359050610e7181610e4b565b92915050565b600060208284031215610e8d57610e8c610e41565b5b6000610e9b84828501610e62565b91505092915050565b600082825260208201905092915050565b6000610ec082610bda565b610eca8185610ea4565b9350610eda818560208601610bf6565b610ee381610c29565b840191505092915050565b60006020820190508181036000830152610f088184610eb5565b905092915050565b600073ffffffffffffffffffffffffffffffffffffffff82169050919050565b6000610f3b82610f10565b9050919050565b610f4b81610f30565b8114610f5657600080fd5b50565b600081359050610f6881610f42565b92915050565b600060208284031215610f8457610f83610e41565b5b6000610f9284828501610f59565b91505092915050565b60008115159050919050565b610fb081610f9b565b82525050565b6000602082019050610fcb6000830184610fa7565b92915050565b610fda81610f30565b82525050565b6000602082019050610ff56000830184610fd1565b92915050565b600080fd5b7f4e487b7100000000000000000000000000000000000000000000000000000000600052604160045260246000fd5b61103882610c29565b810181811067ffffffffffffffff8211171561105757611056611000565b5b80604052505050565b600061106a610e37565b9050611076828261102f565b919050565b600067ffffffffffffffff82111561109657611095611000565b5b602082029050602081019050919050565b600080fd5b60006110bf6110ba8461107b565b611060565b905080838252602082019050602084028301858111156110e2576110e16110a7565b5b835b8181101561110b57806110f78882610e62565b8452602084019350506020810190506110e4565b5050509392505050565b600082601f83011261112a57611129610ffb565b5b813561113a8482602086016110ac565b91505092915050565b60006020828403121561115957611158610e41565b5b600082013567ffffffffffffffff81111561117757611176610e46565b5b61118384828501611115565b91505092915050565b600067ffffffffffffffff8211156111a7576111a6611000565b5b602082029050602081019050919050565b600080fd5b600067ffffffffffffffff8211156111d8576111d7611000565b5b6111e182610c29565b9050602081019050919050565b82818337600083830152505050565b600061121061120b846111bd565b611060565b90508281526020810184848401111561122c5761122b6111b8565b5b6112378482856111ee565b509392505050565b600082601f83011261125457611253610ffb565b5b81356112648482602086016111fd565b91505092915050565b600061128061127b8461118c565b611060565b905080838252602082019050602084028301858111156112a3576112a26110a7565b5b835b818110156112ea57803567ffffffffffffffff8111156112c8576112c7610ffb565b5b8086016112d5898261123f565b855260208501945050506020810190506112a5565b5050509392505050565b600082601f83011261130957611308610ffb565b5b813561131984826020860161126d565b91505092915050565b60006020828403121561133857611337610e41565b5b600082013567ffffffffffffffff81111561135657611355610e46565b5b611362848285016112f4565b91505092915050565b600082825260208201905092915050565b600061138782610c73565b611391818561136b565b935061139c83610c8f565b8060005b838110156113cd5781516113b48882610cb8565b97506113bf83610cd0565b9250506001810190506113a0565b5085935050505092915050565b600060408201905081810360008301526113f48185610eb5565b90508181036020830152611408818461137c565b90509392505050565b7f4e487b7100000000000000000000000000000000000000000000000000000000600052602260045260246000fd5b6000600282049050600182168061145857607f821691505b60208210810361146b5761146a611411565b5b50919050565b7f4e487b7100000000000000000000000000000000000000000000000000000000600052603260045260246000fd5b7f4e487b7100000000000000000000000000000000000000000000000000000000600052601160045260246000fd5b60006114da82610c9f565b91507fffffffffffffffffffffffffffffffffffffffffffffffffffffffffffffffff820361150c5761150b6114a0565b5b600182019050919050565b7f557365722068617320616c7265616479207072766f646564206665656462616360008201527f6b2e000000000000000000000000000000000000000000000000000000000000602082015250565b6000611573602283610ea4565b915061157e82611517565b604082019050919050565b600060208201905081810360008301526115a281611566565b9050919050565b7f466565646261636b2073686f756c642062652070726f766964656420666f722060008201527f616c6c207175657374696f6e732e000000000000000000000000000000000000602082015250565b6000611605602e83610ea4565b9150611610826115a9565b604082019050919050565b60006020820190508181036000830152611634816115f8565b9050919050565b7f4f6e6c79206f776e65722063616e2063616c6c20746869732066756e6374696f60008201527f6e2e000000000000000000000000000000000000000000000000000000000000602082015250565b6000611697602283610ea4565b91506116a28261163b565b604082019050919050565b600060208201905081810360008301526116c68161168a565b905091905056fea2646970667358221220af3f60832a76903c774acbd70e0d34c1f4a6138e923ad868f05a99fce51b5a5364736f6c634300080d0033",
  "immutableReferences": {},
  "source": "// SPDX-License-Identifier: MIT\n// Tells the Solidity compiler to compile only from v0.8.13 to v0.9.0\npragma solidity ^0.8.13;\n\ncontract FeedbackForm {\n    struct Question {\n        string value;\n        uint[] feedback;\n    }\n\n    uint private numberOfQuestions;\n\n    address public owner;\n    string public title;\n    string public description;\n\n    mapping(uint => Question) public questions;\n    mapping(address => bool) public feedbackProviders;\n\n    constructor(string memory _title, string memory _description) {\n        owner = tx.origin;\n        title = _title;\n        description = _description;\n    }\n\n    modifier onlyOwner() {\n        require(tx.origin == owner, \"Only owner can call this function.\");\n        _;\n    }\n\n    modifier hasProvidedFeedback() {\n        require(!feedbackProviders[tx.origin], \"User has already prvoded feedback.\");\n        _;\n    }\n\n    function getHasProvidedFeedback(address _address) public view returns (bool) {\n        return feedbackProviders[_address];\n    }\n\n    function setQuestions(string[] memory _questions) public onlyOwner {\n        numberOfQuestions = _questions.length;\n        for (uint i; i < numberOfQuestions; i++) {\n            Question memory question;\n            question.value = _questions[i];\n            questions[i] = question;\n        }\n    }\n\n    function getQuestionById(\n        uint _id\n    ) public view onlyOwner returns (string memory, uint[] memory) {\n        return (questions[_id].value, questions[_id].feedback);\n    }\n\n    function getAllQuestions()\n        public\n        view\n        returns (Question[] memory)\n    {\n        Question[] memory allQuestions = new Question[](numberOfQuestions);\n        for (uint i; i < numberOfQuestions; i++) {\n            allQuestions[i] = questions[i];\n        }\n        return allQuestions;\n    }\n\n    function submitFeedback(\n        uint[] memory _feedback\n    ) public hasProvidedFeedback {\n        require(\n            numberOfQuestions == _feedback.length,\n            \"Feedback should be provided for all questions.\"\n        );\n        for (uint i; i < _feedback.length; i++) {\n            Question storage question = questions[i];\n            question.feedback.push(_feedback[i]);\n        }\n        feedbackProviders[msg.sender] = true;\n    }\n}\n",
  "sourcePath": "/Users/macbook/projects/zk-vote/packages/form-XChange/contracts/FeedbackForm.sol",
  "compiler": {
    "name": "solc",
    "version": "0.8.13+commit.abaa5c0e.Emscripten.clang"
  },
  "schemaVersion": "3.4.12",
  "updatedAt": "2023-04-19T20:36:15.456Z",
  "devdoc": {
    "kind": "dev",
    "methods": {},
    "version": 1
  },
  "userdoc": {
    "kind": "user",
    "methods": {},
    "version": 1
  }
}